:020000040800F2
:10000000378100201301010037140240130404005B
:100010008327840193E7C700232CF400032784017E
:10002000930710003367F700232CE4000327C40173
:10003000B7072000938707003367F700232EE400FB
:100040003715014013050580B7C5CC0C93850533E2
:100050002322B500930560002328B500371901401D
:10006000130909C09305000C2328B900B70500FF48
:10007000938505002320B900B757004093870740B8
:1000800083A607003786000013060600B3E6C60005
:1000900023A0D7001346F6FFB3F6C60023A0D7006F
:1000A000B75700409387074083A6470093E6860032
:1000B00023A2D70083A6C70193E6860223AED7000A
:1000C00083A6070293E6960023A0D70283A6070023
:1000D00093E6160023A0D70083A6070093E6064008
:1000E00023A0D70037060020130686021303E00280
:1000F00023006600EF004029EF00801A13058007F7
:10010000EF00001E13050000EF00001BB7120000F7
:100110009382C2A41303F00083CE020093821200E4
:1001200003CF02009382120013050F00EF00C018E6
:100130001303F3FF630A030013850E00EF00C017DB
:100140001303F3FFE31A03FCEF00001EEF00401F50
:10015000EF00402CEF004023EF0080141305000255
:10016000EF000018B7120000938202A41303C0002E
:10017000838E020093821200038F0200938212008A
:1001800013050F00EF0040131303F3FF630A03008E
:1001900013850E00EF0040121303F3FFE31A03FC74
:1001A000EF008018EF00C019EF00C026EF00C01D5F
:1001B000EF00000F13052002EF008012130520004E
:1001C000EF00800F1305100CEF00000F1305100057
:1001D000EF00800EEF004015EF008016EF00C01A10
:1001E000EF00000C13052002EF00800F1305300014
:1001F000EF00800C1305B002EF00000C13050001A6
:10020000EF00800BEF004012EF008013EF00401E64
:10021000EF00001EEF00C01DEF00801DEF00401D2D
:10022000EF000066EF00C035EF00004237170140D5
:10023000130707808326870093F6860063820604EF
:1002400037170140130707808326870093F60601BE
:10025000638C060237170140130707808326870047
:1002600093F60602638606023717014013070780DC
:100270008326870093F60604638006026FF01FFB57
:10028000EF0000306FF09FFAEF00003C6FF05FFB73
:10029000EF0080246FF01FFCEF0040296FF0DFFCBF
:1002A000B75700409387074083A6070093E60650A0
:1002B00023A0D70067800000B7570040938707400E
:1002C00083A6470193F60608E38806FE23A8A70045
:1002D00083A6470193F64600E38C06FE6780000084
:1002E000B75700409387074083A6470193F616004F
:1002F000E38806FE23A8A70083A6470193F62600FD
:10030000E38C06FE83A6470183A687016780000071
:10031000B75700409387074083A6070093F6F6BFC0
:1003200023A0D70067800000B7570040938707409D
:1003300083A6470193F60608E38806FE678000005F
:10034000B75700409387074083A6070093E606202F
:1003500023A0D70067800000370600201306860020
:10036000EFF01FF8EFF0DFFAEFF0DFF9EFF05FFDED
:1003700083A6470193F60604E38C06FE03A5070156
:100380002320A60067800000B757004093870740EE
:1003900083A6870193F62600E39806FE6780000097
:1003A0001301C1FF23201100EFF09FF383A6470143
:1003B00093F60604E38C06FE1306160003A5070158
:1003C0002300A6001306F6FFEFF09FF4EFF05FF7AF
:1003D00083A6470193F60604E38C06FE03A50701F6
:1003E0002300A60083200100130141006780000064
:1003F0001301C1FF2320610037E32800130303A882
:100400001303F3FFE31E03FE2320610013014100E9
:10041000678000001301C1FF2320610037330A0009
:100420001303036A1303F3FFE31E03FE232061009B
:1004300013014100678000001301C1FF2320610008
:1004400037730000130353891303F3FFE31E03FE06
:100450002320610013014100678000001301C1FFE8
:10046000232011003706002013068600EFF05FE31B
:1004700013053002EFF0DFF2832001001301410089
:10048000678000001301C1FF23201100EFF0DFEFB0
:10049000EFF01FE113052002EFF09FE41385050044
:1004A000EFF09FE1370600201306860013061600C2
:1004B00003450600EFF05FE01306F6FF0345060074
:1004C000EFF09FDFEFF05FE6EFF09FE783200100A2
:1004D00013014100678000001301C1FF23201100B8
:1004E000EFF09FF5EFF0DFDB13052002EFF05FDFA9
:1004F00013052000EFF05FDCEFF05FF63706002019
:100500001306860003270600136707302320E60042
:1005100093052000EFF01FF7EFF0DFEFEF00801FF3
:100520008320010013014100678000001301C1FF17
:1005300023201100EFF05FF0EFF09FD613052002AB
:10054000EFF01FDA13052000EFF01FD7EFF01FF1D7
:1005500037060020130686000327060013670710DE
:100560002320E60093052000EFF0DFF1EFF09FEA93
:10057000EF00401A83200100130141006780000052
:100580001301C1FF23201100EFF01FEBEFF05FD14B
:1005900013052002EFF0DFD41305A000EFF0DFD148
:1005A000EFF0DFEB37060020130686000327060076
:1005B0001377F73F2320E6000327060013071700F1
:1005C0009305300D635EB7061317670037060020EA
:1005D0001306C6002320E600EFF09FCC130520028F
:1005E000EFF01FD013053000EFF01FCDEFF01FE745
:1005F0003706002013068600032706009305F00344
:100600003377B700370600201306C600832506009F
:10061000938505013367B70037060020130686006F
:100620002320E60093053000EFF0DFE5EFF09FDEDA
:10063000EF00400E8320010013014100678000009D
:10064000130700016FF05FFD1301C1FF23201100AC
:10065000EFF09FDEEFF0DFC413052002EFF05FC87C
:100660001305A000EFF05FC5EFF05FDF3706002055
:1006700013068600032706001377F73F2320E600C2
:10068000032706001307F7FF93050000634EB70624
:1006900013176700370600201306C6002320E60064
:1006A000EFF01FC013052002EFF09FC313053000C9
:1006B000EFF09FC0EFF09FDA3706002013068600A8
:1006C000032706009305F0033377B70037060020B1
:1006D0001306C600832506003367B70013670701BA
:1006E00037060020130686002320E600930530001D
:1006F000EFF05FD9EFF01FD2EF00C00183200100BF
:100700001301410067800000137707001307270DCE
:100710006FF01FF81301C1FF23201100EFF05FB845
:1007200013052002EFF0DFBB1305A000EFF0DFB8E8
:10073000EFF0DFD2370600201306860003270600FD
:100740009305F03F3377B700930560363307B70062
:100750002320E600EF008008EF0040031304600050
:10076000B704002093848401EF00C01693844400F2
:100770001304F4FFE31A04FEEFF01FBBEFF05FBCBD
:100780008320010013014100678000001301C1FFB5
:1007900023201100EF00402513052002EFF0DFB108
:1007A00013050000EFF05FB113053000EFF0DFB08C
:1007B00013051002EFF05FB013050000EFF0DFAF9C
:1007C0001305F007EFF05FAFEFF01FB6EFF05FB784
:1007D0008320010013014100678000001301C1FF65
:1007E000232011003706002013068600832606000A
:1007F0003727000013070771B3D7E6029387070373
:1008000037060020130686012320F600B3F6E60221
:100810001307803EB3D7E60293870703370600200D
:100820001306C6012320F600B3F6E60213074006BE
:10083000B3D7E602938707033706002013060602A4
:100840002320F600B3F6E6021307A000B3D7E602B2
:100850009387070337060020130646022320F6007D
:10086000B3F6E60293860603370600201306C60297
:100870002320D6008320010013014100678000007F
:100880001301C1FF2320110093034000EFF0DFAFFD
:10089000EFF01FA113058007EFF09FA413050004DC
:1008A000EFF09FA1130E000813750500EFF0DFA015
:1008B000130EFEFFE31A0EFE9383F3FFE39403FE91
:1008C000EFF09FA6EFF0DFA78320010013014100A6
:1008D000678000001301C1FF2320110083C30400BF
:1008E0001303E0026388630013030002638A63005A
:1008F0006F00C001371600001306C6AF6F0040033B
:10090000371600001306C6B06F00800237160000CD
:100910001306C6A513030003B3836340638A030071
:10092000137E0E0013060601130E1E00E39CC3FF88
:10093000EFF09FA5EFF0DF9613058007EFF05F9AC9
:1009400013050004EFF05F97130E0001EF00800124
:10095000EFF09F9DEFF0DF9E832001001301410027
:10096000678000001301C1FF2320110083430600AC
:1009700013061600EF00000313850E001375F50F24
:10098000EFF09F9313850E0013558500EFF0DF9273
:10099000130EFEFFE31C0EFC832001001301410037
:1009A0006780000093FE0E00130F8000B38F0300DA
:1009B00093F20F08639C0200939E2E00939F1F00EA
:1009C000130FFFFFE3160FFE67800000939E2E00BB
:1009D00093023000B3EE5E00939F1F00130FFFFFE2
:1009E000E3180FFC678000001301C1FF23201100F2
:1009F000EFF09F99EFF0DF8A13058007EFF05F8E2D
:100A000013050000EFF05F8B83200100130141000C
:100A1000678000001301C1FF23201100EFF0DF9673
:100A2000EFF01F8813058007EFF09F8B130500047C
:100A3000EFF09F88832001001301410067800000D0
:100A400003C10000000A0F88000002421FA8012015
:100A50000021227F030002DA148D00AF0000E00FB6
:100A60001010082008201010E00F000000001020D7
:100A70001020F83F0020002000000000000070302F
:100A8000082808240822882170300000000030184F
:100A90000820882088204811300E00000000000740
:100AA000C00420241024F83F002400000000F8199E
:100AB0000821882088200811080E00000000E00F9F
:100AC0001011882088201811000E00000000380046
:100AD0000800083FC8003800080000000000701C33
:100AE0008822082108218822701C00000000E000F4
:100AF0001031082208221011E00F00000000003021
:100B000000300000000000000000000000000000B5
:0C0B1000000000000000000000000000D9
:00000001FF
